{
  "transactions": [
    {
      "hash": "0x04587202733b5c3cd708ada4240436fb0e4aa0ff4938d8293933229902d45809",
      "transactionType": "CREATE",
      "contractName": "LineaTokenAdapter",
      "contractAddress": "0x3e4caa049ccb9e469975f978a1f8529d37452de7",
      "function": null,
      "arguments": null,
      "transaction": {
        "from": "0x58a60a9cbedc8e7d3f9ec9a96312bede8fc147b8",
        "gas": "0xe4bcc",
        "value": "0x0",
        "input": "0x60a060405234801561001057600080fd5b5033608052608051610c1661003e6000396000818161018a0152818161020f015261033f0152610c166000f3fe60806040526004361061007f5760003560e01c806381a73ad51161004e57806381a73ad51461014b5780638da5cb5b14610178578063f5537ede146101c4578063fb0b2b36146101e457600080fd5b80632c8da5601461008b5780635fa7b584146100ad57806368c4ac26146100cd57806375151b631461011257600080fd5b3661008657005b600080fd5b34801561009757600080fd5b506100ab6100a6366004610859565b610204565b005b3480156100b957600080fd5b506100ab6100c836600461091b565b610334565b3480156100d957600080fd5b506100fd6100e836600461091b565b60006020819052908152604090205460ff1681565b60405190151581526020015b60405180910390f35b34801561011e57600080fd5b506100fd61012d36600461091b565b6001600160a01b031660009081526020819052604090205460ff1690565b34801561015757600080fd5b5061016b61016636600461091b565b61041c565b604051610109919061095a565b34801561018457600080fd5b506101ac7f000000000000000000000000000000000000000000000000000000000000000081565b6040516001600160a01b039091168152602001610109565b3480156101d057600080fd5b506100fd6101df36600461098d565b6104ff565b3480156101f057600080fd5b5061016b6101ff36600461091b565b610737565b336001600160a01b037f000000000000000000000000000000000000000000000000000000000000000016146102555760405162461bcd60e51b815260040161024c906109c9565b60405180910390fd5b60008151116102b85760405162461bcd60e51b815260206004820152602960248201527f4c696e6561546f6b656e416461707465723a2073796d626f6c2063616e6e6f7460448201526820626520656d70747960b81b606482015260840161024c565b6001600160a01b038216600090815260208181526040808320805460ff1916600190811790915590915290206102ee8282610a9c565b50816001600160a01b03167f7afee0f1b802cc0f66c67890e26b4566251859cf2cd8de79b86aed7251d9756a82604051610328919061095a565b60405180910390a25050565b336001600160a01b037f0000000000000000000000000000000000000000000000000000000000000000161461037c5760405162461bcd60e51b815260040161024c906109c9565b6001600160a01b03811660009081526020819052604090205460ff166103b45760405162461bcd60e51b815260040161024c90610b5c565b6001600160a01b038116600090815260208181526040808320805460ff19169055600190915281206103e5916107d1565b6040516001600160a01b038216907f4c910b69fe65a61f7531b9c5042b2329ca7179c77290aa7e2eb3afa3c8511fd390600090a250565b6001600160a01b03811660009081526020819052604090205460609060ff166104575760405162461bcd60e51b815260040161024c90610b5c565b6001600160a01b0382166000908152600160205260409020805461047a90610a13565b80601f01602080910402602001604051908101604052809291908181526020018280546104a690610a13565b80156104f35780601f106104c8576101008083540402835291602001916104f3565b820191906000526020600020905b8154815290600101906020018083116104d657829003601f168201915b50505050509050919050565b6001600160a01b03831660009081526020819052604081205460ff166105375760405162461bcd60e51b815260040161024c90610b5c565b6001600160a01b0384166105fa576040516001600160a01b038416908390600081818185875af1925050503d806000811461058e576040519150601f19603f3d011682016040523d82523d6000602084013e610593565b606091505b505080915050806105f55760405162461bcd60e51b815260206004820152602660248201527f4c696e6561546f6b656e416461707465723a20455448207472616e736665722060448201526519985a5b195960d21b606482015260840161024c565b610730565b604080513360248201526001600160a01b038581166044830152606480830186905283518084039091018152608490920183526020820180516001600160e01b03166323b872dd60e01b179052915160009283929088169161065c9190610ba2565b6000604051808303816000865af19150503d8060008114610699576040519150601f19603f3d011682016040523d82523d6000602084013e61069e565b606091505b50915091508180156106c85750805115806106c85750808060200190518101906106c89190610bbe565b6107295760405162461bcd60e51b815260206004820152602c60248201527f4c696e6561546f6b656e416461707465723a204552433230207472616e73666560448201526b1c919c9bdb4819985a5b195960a21b606482015260840161024c565b6001925050505b9392505050565b6001602052600090815260409020805461075090610a13565b80601f016020809104026020016040519081016040528092919081815260200182805461077c90610a13565b80156107c95780601f1061079e576101008083540402835291602001916107c9565b820191906000526020600020905b8154815290600101906020018083116107ac57829003601f168201915b505050505081565b5080546107dd90610a13565b6000825580601f106107ed575050565b601f01602090049060005260206000209081019061080b919061080e565b50565b5b80821115610823576000815560010161080f565b5090565b80356001600160a01b038116811461083e57600080fd5b919050565b634e487b7160e01b600052604160045260246000fd5b6000806040838503121561086c57600080fd5b61087583610827565b9150602083013567ffffffffffffffff8082111561089257600080fd5b818501915085601f8301126108a657600080fd5b8135818111156108b8576108b8610843565b604051601f8201601f19908116603f011681019083821181831017156108e0576108e0610843565b816040528281528860208487010111156108f957600080fd5b8260208601602083013760006020848301015280955050505050509250929050565b60006020828403121561092d57600080fd5b61073082610827565b60005b83811015610951578181015183820152602001610939565b50506000910152565b6020815260008251806020840152610979816040850160208701610936565b601f01601f19169190910160400192915050565b6000806000606084860312156109a257600080fd5b6109ab84610827565b92506109b960208501610827565b9150604084013590509250925092565b6020808252602a908201527f4c696e6561546f6b656e416461707465723a2063616c6c6572206973206e6f74604082015269103a34329037bbb732b960b11b606082015260800190565b600181811c90821680610a2757607f821691505b602082108103610a4757634e487b7160e01b600052602260045260246000fd5b50919050565b601f821115610a9757600081815260208120601f850160051c81016020861015610a745750805b601f850160051c820191505b81811015610a9357828155600101610a80565b5050505b505050565b815167ffffffffffffffff811115610ab657610ab6610843565b610aca81610ac48454610a13565b84610a4d565b602080601f831160018114610aff5760008415610ae75750858301515b600019600386901b1c1916600185901b178555610a93565b600085815260208120601f198616915b82811015610b2e57888601518255948401946001909101908401610b0f565b5085821015610b4c5787850151600019600388901b60f8161c191681555b5050505050600190811b01905550565b60208082526026908201527f4c696e6561546f6b656e416461707465723a20746f6b656e206e6f74207375706040820152651c1bdc9d195960d21b606082015260800190565b60008251610bb4818460208701610936565b9190910192915050565b600060208284031215610bd057600080fd5b8151801515811461073057600080fdfea264697066735822122084a2f39ad23650e7c3a90fc4aa5e2e43f662d913ce514e9f7d2252807586ee4264736f6c63430008140033",
        "nonce": "0x2d",
        "chainId": "0xe705"
      },
      "additionalContracts": [],
      "isFixedGasLimit": false
    },
    {
      "hash": "0x21ced003d94f9464537550d8351e42e9190f217ae414034fd5eb8c8cc5cf6657",
      "transactionType": "CALL",
      "contractName": "LineaTokenAdapter",
      "contractAddress": "0x3e4caa049ccb9e469975f978a1f8529d37452de7",
      "function": "addToken(address,string)",
      "arguments": [
        "0x1234567890123456789012345678901234567890",
        "USDC"
      ],
      "transaction": {
        "from": "0x58a60a9cbedc8e7d3f9ec9a96312bede8fc147b8",
        "to": "0x3e4caa049ccb9e469975f978a1f8529d37452de7",
        "gas": "0x1777a",
        "value": "0x0",
        "input": "0x2c8da5600000000000000000000000001234567890123456789012345678901234567890000000000000000000000000000000000000000000000000000000000000004000000000000000000000000000000000000000000000000000000000000000045553444300000000000000000000000000000000000000000000000000000000",
        "nonce": "0x2e",
        "chainId": "0xe705"
      },
      "additionalContracts": [],
      "isFixedGasLimit": false
    },
    {
      "hash": "0xe5be6b579a696464f1581efec3de062b0b7ddf2c1a6c45e3c54377a8142fa4a3",
      "transactionType": "CALL",
      "contractName": "LineaTokenAdapter",
      "contractAddress": "0x3e4caa049ccb9e469975f978a1f8529d37452de7",
      "function": "addToken(address,string)",
      "arguments": [
        "0x0000000000000000000000000000000000000000",
        "ETH"
      ],
      "transaction": {
        "from": "0x58a60a9cbedc8e7d3f9ec9a96312bede8fc147b8",
        "to": "0x3e4caa049ccb9e469975f978a1f8529d37452de7",
        "gas": "0x18c1f",
        "value": "0x0",
        "input": "0x2c8da5600000000000000000000000000000000000000000000000000000000000000000000000000000000000000000000000000000000000000000000000000000004000000000000000000000000000000000000000000000000000000000000000034554480000000000000000000000000000000000000000000000000000000000",
        "nonce": "0x2f",
        "chainId": "0xe705"
      },
      "additionalContracts": [],
      "isFixedGasLimit": false
    }
  ],
  "receipts": [
    {
      "status": "0x1",
      "cumulativeGasUsed": "0xaff3b",
      "logs": [],
      "logsBloom": "0x00000000000000000000000000000000000000000000000000000000000000000000000000000000000000000000000000000000000000000000000000000000000000000000000000000000000000000000000000000000000000000000000000000000000000000000000000000000000000000000000000000000000000000000000000000000000000000000000000000000000000000000000000000000000000000000000000000000000000000000000000000000000000000000000000000000000000000000000000000000000000000000000000000000000000000000000000000000000000000000000000000000000000000000000000000000",
      "type": "0x2",
      "transactionHash": "0x04587202733b5c3cd708ada4240436fb0e4aa0ff4938d8293933229902d45809",
      "transactionIndex": "0x0",
      "blockHash": "0xaf316b85c795930cf9294323b0709829fd4657571cc593a9c75be01bcb01a1b9",
      "blockNumber": "0xc6a400",
      "gasUsed": "0xaff3b",
      "effectiveGasPrice": "0x66738a0",
      "from": "0x58a60a9cbedc8e7d3f9ec9a96312bede8fc147b8",
      "to": null,
      "contractAddress": "0x3e4caa049ccb9e469975f978a1f8529d37452de7"
    },
    {
      "status": "0x1",
      "cumulativeGasUsed": "0xc0f12",
      "logs": [
        {
          "address": "0x3e4caa049ccb9e469975f978a1f8529d37452de7",
          "topics": [
            "0x7afee0f1b802cc0f66c67890e26b4566251859cf2cd8de79b86aed7251d9756a",
            "0x0000000000000000000000001234567890123456789012345678901234567890"
          ],
          "data": "0x000000000000000000000000000000000000000000000000000000000000002000000000000000000000000000000000000000000000000000000000000000045553444300000000000000000000000000000000000000000000000000000000",
          "blockHash": "0xaf316b85c795930cf9294323b0709829fd4657571cc593a9c75be01bcb01a1b9",
          "blockNumber": "0xc6a400",
          "transactionHash": "0x21ced003d94f9464537550d8351e42e9190f217ae414034fd5eb8c8cc5cf6657",
          "transactionIndex": "0x1",
          "logIndex": "0x0",
          "removed": false
        }
      ],
      "logsBloom": "0x00000000000000000000000000000000000000000020000010000000000000000000000000000000000000000000000000000000000000000000000000000000000000000000000000000000000000000000000000000000000000000040000000000800000000000000000000000000000000000000000000000000000000000000000000000000000000000000000000000000000000000000000000000000000000000000000000000100000000800000000000000000000000000000000000000000000000000000000000000000000000008000020000000000000000000000000000000000000000000000000000040000000000000000000000000000",
      "type": "0x2",
      "transactionHash": "0x21ced003d94f9464537550d8351e42e9190f217ae414034fd5eb8c8cc5cf6657",
      "transactionIndex": "0x1",
      "blockHash": "0xaf316b85c795930cf9294323b0709829fd4657571cc593a9c75be01bcb01a1b9",
      "blockNumber": "0xc6a400",
      "gasUsed": "0x10fd7",
      "effectiveGasPrice": "0x66738a0",
      "from": "0x58a60a9cbedc8e7d3f9ec9a96312bede8fc147b8",
      "to": "0x3e4caa049ccb9e469975f978a1f8529d37452de7",
      "contractAddress": null
    },
    {
      "status": "0x1",
      "cumulativeGasUsed": "0xd1ded",
      "logs": [
        {
          "address": "0x3e4caa049ccb9e469975f978a1f8529d37452de7",
          "topics": [
            "0x7afee0f1b802cc0f66c67890e26b4566251859cf2cd8de79b86aed7251d9756a",
            "0x0000000000000000000000000000000000000000000000000000000000000000"
          ],
          "data": "0x000000000000000000000000000000000000000000000000000000000000002000000000000000000000000000000000000000000000000000000000000000034554480000000000000000000000000000000000000000000000000000000000",
          "blockHash": "0xaf316b85c795930cf9294323b0709829fd4657571cc593a9c75be01bcb01a1b9",
          "blockNumber": "0xc6a400",
          "transactionHash": "0xe5be6b579a696464f1581efec3de062b0b7ddf2c1a6c45e3c54377a8142fa4a3",
          "transactionIndex": "0x2",
          "logIndex": "0x1",
          "removed": false
        }
      ],
      "logsBloom": "0x00000000000000000000000000000000000000000000000010000000000000000000000000000000000000000000000000000000000000000000000000000000000000000000000000000000000000000000000000000000000000000040000000000800020000000000000000000800000000000000000000000000000000000000000000000000000000000000000000000000000000000000000000000000000000000000000000000000000000000000000000000000000000000000000000000000000000000000000000000000000000008000020000000000000020000000000000000000000000000000000000040000000000000000000000000000",
      "type": "0x2",
      "transactionHash": "0xe5be6b579a696464f1581efec3de062b0b7ddf2c1a6c45e3c54377a8142fa4a3",
      "transactionIndex": "0x2",
      "blockHash": "0xaf316b85c795930cf9294323b0709829fd4657571cc593a9c75be01bcb01a1b9",
      "blockNumber": "0xc6a400",
      "gasUsed": "0x10edb",
      "effectiveGasPrice": "0x66738a0",
      "from": "0x58a60a9cbedc8e7d3f9ec9a96312bede8fc147b8",
      "to": "0x3e4caa049ccb9e469975f978a1f8529d37452de7",
      "contractAddress": null
    }
  ],
  "libraries": [],
  "pending": [],
  "returns": {},
  "timestamp": 1747017789,
  "chain": 59141,
  "commit": "301d12c"
}